:020000040800F2
:1000000090040020010100088B1700086315000808
:1000100089170008610400080319000800000000A7
:100020000000000000000000000000008F17000822
:1000300063040008000000008D17000891170008F5
:100040001B0100081B0100081B0100081B01000820
:100050001B0100081B0100081B0100081B01000810
:100060001B0100081B0100081B0100081B01000800
:100070001B0100081B0100081B0100081B010008F0
:100080001B0100081B0100081B0100081B010008E0
:100090001B0100081B0100081B0100081B010008D0
:1000A0001B0100081B0100081B0100081B010008C0
:1000B0001B0100081B010008000000001B010008D4
:1000C0001B01000800000000000000001B010008E8
:1000D000000000001B0100081B01000800000000D8
:1000E0001B0100081B0100081B010008DFF80CD0F1
:1000F00000F046F900480047CD1A0008900400209F
:100100000648804706480047FEE7FEE7FEE7FEE7B1
:10011000FEE7FEE7FEE7FEE7FEE7FEE7F51700086D
:10012000ED000008D2B201E000F8012B491EFBD21D
:1001300070470022F6E710B513460A4604461946F2
:10014000FFF7F0FF204610BD421C10F8011B0029EC
:10015000FBD1801A7047F0B480EA0102D40F42004C
:10016000B2EB410F02D20246084611464A0042D085
:10017000C30DDDB2C1F3C752AD1A202D35DAC1F37C
:10018000160141F4000204B15242C5F1200602FA00
:1001900006F12A411044B3EBD05F23D0C4B1012D46
:1001A000A0EBC35009DCF0BC4FF0004202EAC3529E
:1001B000DBB200F5000000F0B4B8400000F1807040
:1001C00000EBC350A0F1807040EAD170490009E013
:1001D000490841EAC071A0EBC35000F50000400897
:1001E00000EBC350F0BC00F093B86142012202EB77
:1001F0004101001BF6E7F0BC704781F00041AAE71F
:1002000080F00040A7E780EA010210B502F0004349
:10021000400022D04A001FD0010E01EB1261C0F352
:100220005600C2F3560240F4000042F40002A0FB64
:10023000022000047F39140400D0401C50EA124010
:1002400001D44000491EC2B20C0604EBD010401C81
:100250004008802A02D003E0002010BD20F00100F9
:10026000002900DA0020184310BD420005D0C0F379
:10027000C7525242914201DC0020704700EBC1504E
:100280007047C10F80EAE0700844CA079623002136
:1002900000F047B896230022114600F042B800F063
:1002A000004220F00040C10DC0F3160040F40000F1
:1002B0007F2901DA00207047962903DCC1F19601FD
:1002C000C84001E096398840002AF4D04042704787
:1002D000002801DBC0F10040002901DBC1F1004131
:1002E0008842704730B50B46014600202022012489
:1002F00009E021FA02F59D4205D303FA02F5491BF4
:1003000004FA02F52844151EA2F10102F1DC30BD09
:100310000029A8BF7047401C490008BF20F0010019
:10032000704710B4B0FA80FC00FA0CF050EA0104F7
:1003300004BF10BC704749B1CCF1200421FA04F489
:1003400011FA0CF118BF012121430843A3EB0C0162
:10035000CB1D4FEA00614FEA102042BF002010BCC5
:10036000704700EBC35010440029A4BF10BC704775
:10037000401C490008BF20F0010010BC704700007D
:10038000064C074D06E0E06840F0010394E80700E2
:1003900098471034AC42F6D3FFF7ACFE101C0008AF
:1003A000301C000870B5044600688168C943C9075D
:1003B0001CD1816821F00101816000F005FC054637
:1003C0000FE000BF00F000FC401B022809D9A06A22
:1003D00040F01000A062E06A40F00100E0620120FD
:1003E00070BD20688068C043C007EBD0002070BD9E
:1003F000F8B500260446009600688168C943C9071D
:1004000028D0816841F001018160134813490068D8
:10041000B0FBF1F000E0401E00900028FBD100F09E
:10042000D3FB054611E000BF00F0CEFB401B0228C5
:100430000BD9A06A40F01000A062E06A40F0010011
:10044000E06284F824600120F8BD20688068C04321
:10045000C007E9D10020F8BD0C00002040420F0089
:10046000FEE7704770B54FF6FA710A4D081A84B26C
:1004700028684462284600F0E1FF4FF6F9712868C9
:1004800001E0426A94B28C42FBD3BDE8704001485F
:1004900000F0E6BF40000020F8B5002504460095B6
:1004A00090F82400012808D0012084F82400204678
:1004B000FFF778FF060002D04BE00220F8BDA06AEB
:1004C00020F4885040F00200A062022000F00CFCF2
:1004D00022490968B1FBF0F0400000E0401E0090A6
:1004E0000028FBD12046FFF783FF2068816841F098
:1004F0000801816000F068FB074604E000F064FB3F
:10050000C01B0A2811D8206880680007F6D420682C
:10051000816841F00401816000F056FB07460EE05F
:1005200000F052FBC01B0A2809D9A06A20F0020083
:1005300040F01000A06284F824500120F8BD20682B
:1005400080684007ECD4A06A20F0020040F001006F
:10055000A06284F824503046F8BD00000C00002052
:10056000F8B50024009490F824202546012A12D0E2
:10057000012280F824204A681F23072A0DD206682A
:10058000776B521E02EB820293409F430B689340AD
:100590001F43776319E00220F8BD06680D2A0AD2CE
:1005A000376BD21F02EB820293409F430B6893404C
:1005B0001F43376309E0F76A0D3A02EB820293406A
:1005C0009F430B6893401F43F7620A68072306683E
:1005D0000A2A0AD3F7680A3A02EB420293409F4381
:1005E0008B6893401F43F76008E0376902EB4202D3
:1005F00093409F438B6893401F4337610A68102ADA
:1006000001D0112A20D1124B02689A4217D1936867
:100610001B0219D4936843F40003936009681029FE
:1006200012D10C490C4A0968B1FBF2F101EB8101CE
:10063000490000E0491E00910029FBD104E0816AD5
:1006400041F020018162012480F824502046F8BD49
:10065000002401400C00002040420F00806A7047D7
:100660000068C06C704700002DE9F0414FF00007B2
:1006700004003D467ED0A06A002628B9E66284F8D0
:100680002460204600F07EF82046FFF78BFEA16A2A
:10069000C90600D420B1A06A40F01000A06269E051
:1006A000A16A21F4885141F00201A1626268E16906
:1006B000237B0A4347EA43010A43A1684FF480774A
:1006C000B94209D0012907D05FF0000194F814C0A5
:1006D000BCF1010F02D00AE03946F7E7F3B1A36A93
:1006E00043F02003A362E36A43F00103E36223685B
:1006F000D3F804C02CF4694C4CEA010CC3F804C0D4
:1007000021688B68DFF870C003EA0C0313438B6029
:10071000A168B9420BD0012909D00CE0DFF85CC018
:10072000A3690CEB43330B4343F40061DFE7218AF9
:100730000D05A5F580152168CB6A23F470032B43C2
:10074000CB62216889680E4B1940914208D1E6625C
:10075000A16A21F0020141F00101A162BDE8F0812E
:10076000A06A20F0020040F01000A062E06A40F0B1
:100770000100E0620120F1E7FDF7E1FF00E0FFFF8B
:10078000FE0E1FFF00B585B000210091019102917E
:10079000039100680E49884218D10E48816941F4DE
:1007A00000718161816901F400710491816941F0F6
:1007B000080181618069694600F008000490012009
:1007C000009003200190044800F012F905B000BD2C
:1007D0000024014000100240000C01402DE9F843C4
:1007E00000260D460446009600F0EEF9804620688B
:1007F0008168C90508D5A06A40F02000A06284F88D
:1008000024600120BDE8F8834168C90503D4C06AAB
:1008100010F4700F26D0022000F066FA38490968FB
:10082000B1FBF0F72068036936490B424FEA6101DA
:100830004FEAA1121BD1C3684FEA611C13EA0C0FE7
:1008400015D103690B4221D1C06810421ED114207A
:100850001FE0681C06D045B300F0B6F9A0EB080015
:10086000A84222D8206800688007F2D52AE00369F0
:100870000B4202D1C168114206D0026922490A42E4
:1008800006D1C068084203D1542002E0292000E0CC
:10089000FC204743009813E0681C0ED02DB100F0F7
:1008A00093F9A0EB0800A84207D9A06A40F0040021
:1008B000A06284F824600320A4E70098401C009004
:1008C000B842E9D321686FF012000860A06A40F4D2
:1008D0000070A06220688068C0F3424007280CD1F5
:1008E000207B50B9A06A20F48070A062A06AC00486
:1008F00003D4A06A40F00100A062002082E700005B
:100900000C000020244992244992240070B504462A
:1009100090F8240001280DD0012084F824002046FE
:10092000FFF766FD02004FF0000005D084F82400B8
:10093000104670BD022070BDA16A40F201239943A8
:1009400041F48071A1621F4D23681F49AB4218D149
:100950000E6816F4702F14D0A66A46F48016A662AC
:100960000E68760505D5A66A26F4005646F480562C
:10097000A662A66AF6040AD5E66A26F00606E662CC
:1009800006E0A66A26F48016A6625E68E9E7E062E1
:1009900084F824006FF00200186020688368C3F3B5
:1009A0004243072B05D1A84208D1096811F4702FE2
:1009B00004D0816841F480118160B9E7816841F415
:1009C000A001F9E7002801400424014070B5044665
:1009D00000F0FAF80546601C02D004480078044490
:1009E00000F0F2F8401BA042FAD370BD00000020D6
:1009F0002DE9F84FDFF89C91002409F1040A0AF16F
:100A0000040B23460F270BF1040EBBE00125A54084
:100A10002A40AA4276D1DFF880C14E68A6EB0C08C6
:100A200066452BD00DDC032E34D005DC36B3012E09
:100A300019D0022E2FD11BE0112E16D0122E2AD142
:100A400019E0B8F5881F19D006DCB8F5803F15D03D
:100A5000B8F5801F1FD111E0B8F5001F0ED0B8F512
:100A6000041F18D10AE0CB6815E0CB681B1D12E00B
:100A7000CB6808330FE0CB680C330CE08B682BB1EC
:100A8000012B4FF0080303D0456104E0042302E08A
:100A9000056100E00023FF2A01D8064601E000F1CD
:100AA00004064FEA840501D9A5F12005D6F8008097
:100AB00007FA05FC28EA0C0803FA05F548EA0508D8
:100AC000C6F800804D68ED005BD5344DAE6946F048
:100AD0000106AE61AD6924F0030605F0010500953D
:100AE0002F4D06EB050CDCF80850A607360F07FA69
:100AF00006F825EA0805DFF8AC80404503D14FF041
:100B0000000810E03DE0DFF8A080404502D14FF042
:100B1000010808E0DFF89480404502D14FF0020858
:100B200001E04FF0030808FA06F848EA0508CCF897
:100B300008804D68D9F80060ED034D4601D5164395
:100B400000E096432E604D68DAF80060AD0355462C
:100B500001D5164300E096432E604D68DBF8006037
:100B6000ED025D4601D5164300E096432E604D68C8
:100B7000DEF80060AD02754601D5164300E09643ED
:100B80002E60641C0A6832FA04F57FF43FAFBDE8BA
:100B9000F88F000000040140000011100010024016
:100BA0000000014000080140000C0140001001401D
:100BB000C2680A4201D041617047016170470AB1C1
:100BC000016170470904FBE7014880687047000035
:100BD000000000200248816802781144816070475B
:100BE00000000020074810B5016841F010010160C5
:100BF000032000F067F8002000F006F800F024F869
:100C0000002010BD0020024070B50D4D04464FF489
:100C10007A712878B1FBF0F00A490968B1FBF0F06D
:100C200000F0A8FB48B9102C07D200222146501E24
:100C300000F028F800206C6070BD012070BD00003D
:100C4000000000200C0000200C4808B5816941F02C
:100C500001018161816901F001010091C16941F0E7
:100C60008051C161C06900F0805000900448416823
:100C700021F0E06141F08061416008BD0010024058
:100C800000000140F0B40E4B1B680C46C3F3022376
:100C9000C3F10705042D00D90425191D072901D228
:100CA000002300E0DB1E012606FA05F1491E214063
:100CB00099409E40761E16403143F0BC00F036BE8F
:100CC0000CED00E0064900F0070208684FF6FF034C
:100CD000184040EA0220034A1043086070470000B1
:100CE0000CED00E00000FA0510B529A401461DCC6A
:100CF00086B08DE81D002AA02A4C006804900020D0
:100D0000012923D002293AD010291DD16168226817
:100D1000D20119D5C1F38342C9031DF8020009D5D8
:100D2000616804AAC1F34041515C1F4AB2FBF1F172
:100D3000484301E01D4948436168490204D440002A
:100D40005FF00301B0FBF1F006B010BD226AC2F300
:100D50000121012903D1920701D5C803F4E7022933
:100D600005D1626A920702D549F64040ECE70329B3
:100D7000EAD121688903E7D54FF22440E4E700F087
:100D800023F96168C1F38131491C4900DAE70000A9
:100D900002030405060708090A0B0C0D0E0F1010BC
:100DA000010200000010024000127A0000093D001C
:100DB0002DE9F84305460078354CC00754D0E0696A
:100DC0000026C00008D4E06940F08050E061E0698E
:100DD000012600F0805000902E480168C90512D409
:100DE0000168804641F480710160FFF7EDFE07461F
:100DF00005E000BFFFF7E8FEC01B642823D8D8F841
:100E00000000C005F6D5206A10F4407021D0A988F2
:100E100001F4407181421CD0206A1F49012220F454
:100E200040700A6000220A602062C00711D0FFF7FC
:100E3000CBFE074641F2883808E000BFFFF7C4FE4A
:100E4000C11B414502D90320BDE8F883206A800711
:100E5000F4D5206A696820F44070084320621EB10E
:100E6000E06920F08050E0612878800705D560684F
:100E7000A96820F44040084360602878C00605D582
:100E80006068E96820F48000084360600020DBE7C8
:100E90000010024000700040400442422DE9F0473B
:100EA0000F46050061D0434E306800F00700B8429D
:100EB00009D2306820F0070038433060306800F015
:100EC0000700B84251D128683B4C810712D5400732
:100ED00003D5606840F4E06060602878000703D5BF
:100EE000606840F4605060606068A96820F0F000BD
:100EF000084360602878C00728D06868012810D0AF
:100F00002168022810D0890700292EDA616821F0B3
:100F1000030101436160FFF757FE804641F28839C3
:100F20000DE021688903EFE78901EDE7FFF74CFE4B
:100F3000A0EB0801494502D90320BDE8F0876068AD
:100F4000696800F00C00B0EB810FEFD1306800F061
:100F50000700B8420BD9306820F0070038433060F2
:100F6000306800F00700B84201D00120E5E728789A
:100F7000400705D56068E96820F4E06008436060D8
:100F80002878000706D56068296920F4605040EA97
:100F9000C100606000F028F86168084AC1F30311DD
:100FA000515CC8400649086006480068FFF72CFEFF
:100FB0000020C2E70020024000100240F61B00089B
:100FC0000C0000200400002004480549006849681E
:100FD000044AC1F3C221515CC84070470C00002094
:100FE00000100240061C000812A185B00FC98DE850
:100FF0000F0014A0144A006804905168134801F0CF
:101000000C03042B10D0082B0ED1C1F38343C9036A
:101010001DF803000AD5516804AAC1F34041515C90
:101020000A4A5043B0FBF1F005B070470849484305
:10103000FAE7000002030405060708090A0B0C0D75
:101040000E0F1010010200000010024000127A0082
:1010500000093D002DE9F84F040070D02078C04D04
:10106000C00749D06868C0F38100012807D06868CC
:10107000C0F38100022809D16868C00306D528683A
:10108000800339D560680028E7D035E06068B0F5A6
:10109000803F0BD010B1B0F5A02F11D0286820F4FC
:1010A00080302860286820F4802002E0286840F41E
:1010B00080302860606890B1FFF786FD06460AE040
:1010C000286840F480202860F0E700BFFFF77CFD2F
:1010D000801B642873D828688003F7D50CE0FFF7DD
:1010E00073FD064605E000BFFFF76EFD801B642818
:1010F000F0D828688003F7D420789A4E80074FF004
:1011000001094FF0000839D5686810F00C0F07D0BE
:101110006868C0F38100022809D16868C00306D45A
:101120002868800714D52069012808D110E02069BB
:10113000B0B1C6F80090FFF747FD074605E00AE1A9
:10114000FFF742FDC01B0228C4D828688007F7D5E6
:101150002868616920F0F80040EAC10028600DE0CD
:10116000C6F80080FFF730FD074604E0FFF72CFDCE
:10117000C01B022823D828688007F7D420780007EE
:101180002CD57948A169D9B1C0F80090FFF71CFDB2
:10119000074604E0FFF718FDC01B02280FD8686A55
:1011A0008007F7D571484FF4FA510068B0FBF1F0B1
:1011B000009000BF0098411E0091FAD20EE080E03E
:1011C000C0F80080FFF700FD074604E0FFF7FCFCD5
:1011D000C01B022875D8686A8007F7D420784007BA
:1011E00060D5E8690027C00008D4E86940F0805065
:1011F000E861E869012700F0805000905C480168D0
:10120000C90513D40168834641F480710160FFF77A
:10121000DBFC824606E000BFFFF7D6FCA0EB0A002D
:1012200064284ED8DBF80000C005F5D5E068012839
:101230000AD008B1052813D0286A20F001002862DE
:10124000286A20F0040002E0286A40F001002862C9
:10125000E06841F2883B98B1FFF7B6FC82460BE0AC
:10126000286A40F004002862EEE700BFFFF7ACFCFC
:10127000A0EB0A0159455AD8286A8007F6D50CE038
:10128000FFF7A2FC824605E0FFF79EFCA0EB0A01F7
:1012900059454CD8286A8007F6D41FB1E86920F078
:1012A0008050E861E06988B36968C1F3810102296F
:1012B00044D00228C6F8608004D0FFF785FC0446BD
:1012C00038E034E0FFF780FC074604E0FFF77CFCE1
:1012D000C01B02282BD828688001F7D4206AB0F5FB
:1012E000803F05D16868A16820F400300843686039
:1012F000D4E908010843696821F47411084368605F
:10130000C6F86090FFF760FC044606E025E000BFE9
:10131000FFF75AFC001B022809D828688001F7D57E
:101320001BE000BFFFF750FC001B022802D903207E
:10133000BDE8F88F28688001F4D40EE00128F7D0CA
:101340006868226A00F48031914204D1616A00F435
:101350007010884201D00120EAE70020E8E7000091
:101360000010024000004242800442420C00002073
:101370000070004010B5401EB0F1807F01D3012005
:1013800010BD4FF0E02460610F21601700F0CEFA2D
:101390000020A06107202061002010BD70B590F8EA
:1013A0003C20012A19D0012400F83C4F022242704F
:1013B00050F83C3C5A689D6822F070060A684968FB
:1013C000324325F0800529435A6050F83C2C916047
:1013D000447000210170084670BD022070BD10B538
:1013E000040003D094F83D0010B107E0012010BDC7
:1013F000002084F83C00204600F00CF8022084F81D
:101400003D00211D206800F019FA012084F83D00FC
:10141000002010BD08B500680649884208D106487A
:10142000C16941F00201C161C06900F00200009091
:1014300008BD00000004004000100240022180F8B6
:101440003D1001688A6802F00702062A03D00A6884
:1014500042F001020A60012180F83D10002070472F
:10146000022180F83D1001680A6A41F211131A4204
:1014700007D10A6A9B101A4203D10A6822F00102BE
:101480000A60012180F83D100020704770B50446C5
:1014900090F83C00012817D0012584F83C50022028
:1014A00084F83D002068826822F0770222F47F42AF
:1014B00082600868502830D00DDC20284DD005DC33
:1014C00098B310283BD148E0022070BD302844D0AA
:1014D000402834D139E0602828D0702806D0B0F5F3
:1014E000805F2CD0B0F5005F29D10AE0CB68D1E94C
:1014F0000121206800F0D0F92068816841F077016F
:1015000009E0CB68D1E90121206800F0C5F9206825
:10151000816841F48041816011E0CA6849682068AF
:1015200000F0CCF95021206807E016E0CA6849684D
:10153000206800F0D4F96021206800F0B7F984F841
:101540003D50002084F83C0070BDCA68496820689E
:1015500000F0B4F940212068EFE722680146104608
:10156000EBE7FEE770B500246420FFF72FFA382080
:1015700000F01AF80C2000F017F8062000F014F81C
:10158000012000F011F86420FFF720FA802000F01D
:101590000BF8044D285D00F03FF8641CE4B20D2CFC
:1015A000F8D370BDE81B000870B504461420FEF7A0
:1015B00059FF18484FF47F0101600460154C002268
:1015C000103C4FF400412046FFF7F9FA00224FF497
:1015D00080412046FFF7F3FA651400222946204691
:1015E000FFF7EDFA0A20FEF73DFF012229462046CB
:1015F000FFF7E5FA0A20FEF735FF002229462046CC
:10160000FFF7DDFA0A20FEF72DFFBDE87040142039
:10161000FEF728BF1008014070B504461420FEF7FD
:1016200021FF16484FF47F0101600460134C012232
:10163000103CD1032046FFF7C2FA00224FF480414C
:101640002046FFF7BCFA6514002229462046FFF722
:10165000B6FA0A20FEF706FF012229462046FFF7C8
:10166000AEFA0A20FEF7FEFE002229462046FFF7CA
:10167000A6FABDE870400A20FEF7F4BE100801404B
:101680003EB500210E48009101910C4A0291026082
:1016900081600173017501244FF460220461C2610D
:1016A0004160FEF7E1FF0820CDE900040720029029
:1016B00069460348FEF754FF3EBD00000024014088
:1016C0001000002070B586B00024184800940194E2
:1016D00002940394816941F020018161816901F0E4
:1016E00020010491816941F004018161816901F067
:1016F00004010491816941F00801816180690C4E07
:1017000000F008004FF6FF050490002229463046FD
:10171000FFF755FA01200095CDE90104022003905E
:1017200069463046FFF764F906B070BD001002400C
:101730000008014010B586B00024124800940194BE
:101740000294039404940E49059401604721C0E972
:10175000011441F28831C0E903148461FFF73FFEB0
:101760004FF48050009069460648FFF78FFE0494BE
:1017700004A904480594FFF711FE06B010BD00004F
:101780000004004040000020FEE7704770477047AB
:10179000FFF720BA30B593B028216846FEF7C9FCA0
:1017A00014210AA8FEF7C5FC002401200F94109410
:1017B0001194010412948DE8130004904FF4E0108A
:1017C000CDE90810022507956846FFF743FC0F2076
:1017D000CDE90A056802CDE90C4002210AA80E9461
:1017E000FFF75CFBA80311900F950FA8FFF7E0FA35
:1017F00013B030BD0D48016841F00101016041683E
:101800000B4A1140416001680A4A114001600168B9
:1018100021F480210160416821F4FE0141604FF410
:101820001F0181600449C003086070470010024036
:101830000000FFF8FFFFF6FE08ED00E070B502685B
:10184000134B144C4FF08046984203D0B04201D065
:10185000A04203D122F070054A682A43984203D07F
:10186000B04201D0A04203D122F44074CA6822439E
:101870004C6922F08002224302608A68C2620A68D0
:101880008262984201D1096901630121416170BD01
:10189000002C01400004004010B5846842EA032295
:1018A00024F47F440A432243826010BD826822F000
:1018B00070020A4342F007018160704710B5036A65
:1018C000046A24F001040462846924F0F00444EA08
:1018D000021423F00A020A438461026210BD10B5AB
:1018E000036A23F0100303628369046A23F47043DC
:1018F00043EA023224F0A00343EA0111826101624B
:1019000010BDFEE70FB4084B10B504A902AA039856
:1019100000F02CF8044602A9002000F0D1F820467F
:1019200010BC5DF814FB0000C11A00080907090E7D
:10193000002804DB00F1E02080F80014704700F07C
:101940000F0000F1E02080F8141D704702E008C885
:10195000121F08C1002AFAD170477047002001E029
:1019600001C1121F002AFBD1704700002DE9FF4F73
:1019700089B09B460446002506E025280BD05A4630
:101980000B999047641C6D1C20780028F5D10DB090
:101990002846BDE8F08F0027B8460122474900E0FD
:1019A000074314F8013F203B02FA03F00842F7D145
:1019B00020782E2819D114F8010F47F004072A289F
:1019C0000ED06FF02F022078A0F1300109290CD839
:1019D00008EB880102EB410100EB0108641CF2E70F
:1019E0000A98641C50F8048B0A9020780028CED006
:1019F000642808D0692806D075281ED05A460B994D
:101A000090476D1C58E00A994FF00A0901C90A91E4
:101A1000002802DA40422D2102E0390504D52B21AD
:101A20008DF82010012103E0F90704D02021F7E709
:101A30008A4608AE0DE00021FAE70A994FF00A093C
:101A400001C90A91F7E74946FEF74CFC303106F828
:101A5000011D0028F7D1ADEB060000F12009780741
:101A600001D44FF00108C84502DDA8EB090000E0F1
:101A700000208046002706E008A85A46C05D0B9962
:101A800090476D1C7F1C5745F6DB04E030205A461A
:101A90000B9990476D1CB8F10001A8F10108F5DC25
:101AA00005E016F8010B5A460B9990476D1CB9F1E9
:101AB0000001A9F10109F4DC641C65E709280100B3
:101AC0000A68531C0B60107070470000FFF78AF81B
:101AD000FFF760FEFFF7F6FDFFF7D2FDFFF72AFEE6
:101AE0002C48FEF7D9FCFFF73DFD0A20FEF76EFFFC
:101AF000294D4FF400686FF00B094FF4805A4146AE
:101B00002846FFF755F82348FEF700FF3221214809
:101B1000FEF764FE1F48FEF7A1FD800520D51D4895
:101B2000FEF79EFD86B23046FEF7B4FB0721FEF7B6
:101B30009CFB4946FEF799FB00F032F8C020FFF706
:101B400033FD144F0024703704E0385DFFF764FD67
:101B5000641CE4B20F487030FEF7F6FAA042F4D8E5
:101B60000E4C3046FEF796FB0721FEF77EFB4946FA
:101B7000FEF77BFB2146FEF7ABFB01D2012200E022
:101B8000002251462846FFF71AF84FF4FA70FEF784
:101B90001DFFB4E7100000200008014000001842BB
:101BA00070B50546FEF77BFB0446FEF76AFB294647
:101BB000FEF726FB0849FEF726FBFEF770FB0A211D
:101BC00090FBF1F201FB12032246BDE8704003A135
:101BD0000448FFF797BE00000000204125642E2531
:101BE000640D0A00800000205465616D70657261AB
:101BF000747572653A0000000000000000000102E8
:101C000003040607080900000000010203040000A5
:101C1000301C000800000020100000004C190008D3
:101C2000401C000810000020800400005C1900081F
:101C30000100000010000000000000000024F4007B
:04000005080000ED02
:00000001FF
